:020000040000FA
:02000000852851
:040002000034003492
:080008008B13A200030EA300FC
:100010000C1B6F200B194F208C1A36200C1A152040
:10002000230E8300A20E220E0900361C1928361852
:100030002728B61821282508303E9900B6143528FF
:1000400008002C309900B610361435280800B61870
:100050002F28303026079900B614352808000A30BA
:100060009900B6103610352808000800C501870130
:100070008710071131301A02031907144514323062
:100080001A0203198715C51433301A02031907160B
:10009000451534301A0203198716C51508002D08B6
:1000A0001E3C031D5728AD018614061506162D08A3
:1000B000BA02031986102D08B902031906112D087A
:1000C000061B0A3C061F023C03190612BF1F6B28C1
:1000D000C00ABF01C10ABF0AAD0A0B1108002418EB
:1000E0007A281E0EB400340C0739023EA6002414F0
:1000F0001F1582281E0EB500350C0739023EA500DB
:0A01000024101F119F140C130800B7
:06010A007E214C219D2125
:10011000A5217121B221831203138E2888193A2157
:100120002708013C0319D2282708023C03199D28FF
:100130002708003C0319D7288E280718A6288719F6
:10014000B128071ABC28871AC7288E28C11A083078
:10015000C11E0230B900C11A0830C11E0230BA00F7
:100160008E28C11A0830C11E0230B900C11A0230EF
:10017000C11E0830BA008E28C11A0430C11E0930D1
:10018000B900C11A0430C11E0430BA008E28411BC8
:100190000430411F0230B900411B0430411F0230BE
:1001A000BA008E282A08B9002908BA008E289F14A0
:1001B0002508B9002608BA008E288E28831203135A
:1001C0008B138312031701308D00831603178C13D2
:1001D0000C14831203170C0883120313AA00831252
:1001E00003138B1783120313831203138B138312CE
:1001F000031700308D00831603178C130C14831221
:1002000003170C0883120313A900831203138B171F
:100210008312031308008312031700308D0083122A
:1002200003131B08831203178C00831603178C1308
:100230000C158B1355308D00AA308D008C140C11C9
:10024000831203138312031701308D0083120313EB
:100250001508831203178C00831603178C130C15D3
:100260008B1355308D00AA308D008C140C11831225
:1002700003138E2888193A29A70AFA30A800A80B78
:100280003F29FA30A800A80B43292708033C031D87
:100290000800A701860108008316BB309200831274
:1002A0009D3095009713171397121712971517156E
:1002B0009710171020309B009D161D129D151D15BF
:1002C0009D141D148316031364005730810083129C
:1002D0000313FF30920008008316031361300F08E8
:1002E000080083160313811281150111811001107A
:1002F000831203139C3081000B110800831603172F
:10030000880108148814890183160313850185095F
:10031000870188018809860106178617831203134F
:100320008601850187018801A701AD010230A50082
:100330000230A6000230AE000800831603139F01AE
:100340008312031387309F000800831603130C17D2
:100350000B178C160C168B160B17831203138B17A7
:100360000B1108008316031318129816181518138A
:1003700083160317871183160313193099009A0106
:100380008312031398171813181683120313080007
:10039000FA30A000CE21A00BCA290800FA30A10033
:0603A000A10BD0290800AA
:02400E00D420BC
:02401000FF3F70
:00000001FF
