:020000040000FA
:020000003B289B
:040002000034003492
:080008008B13A200030EA300FC
:100010000C1B2B200B191120230E8300A20E220E85
:1000200009002D081E3C031D1928AD010614861475
:1000300006152D08AE02031906102D08AF0203198C
:1000400086102D08061B0A3C061F023C03190611E8
:10005000AD0A0B110800241833281E08A60024142A
:100060001F154B2138281E08A50024101F114B21F5
:060070009F140C130800B0
:0A0076001C21E62036213E210B215B
:10008000182142280430AE000A30AF000819D420ED
:100090002708003C03195D282708013C031956284E
:1000A0002708023C03195528422842286C202908B9
:1000B0009B002A0895000611422886150611250C7A
:1000C0007F39203E9500260C7F39203E9B009F14EF
:1000D000081E422899284228831203138B13831287
:1000E000031701308D00831603178C130C14831231
:1000F00003170C0883120313AA00831203138B1730
:1001000083120313831203138B138312031700301C
:100110008D00831603178C130C14831203170C081D
:1001200083120313A900831203138B178312031383
:100130000800831603178C189B28831203170030BE
:100140008D00831203131B08831203178C00831680
:1001500003178C130C158B138B1BAB2855308D009C
:10016000AA308D008C140C1183120313831603170D
:100170008C18B8288312031701308D0083120313E3
:100180001508831203178C00831603178C130C15A4
:100190008B138B1BC82855308D00AA308D008C1412
:1001A0000C118312031342280819D428A70AFA3025
:1001B000A800A80BD928FA30A800A80BDD2827082A
:1001C000033C031D0800A701860108008316BB300D
:1001D000920083129D3095009713171397121712F0
:1001E000971517159710171020309B009D161D129C
:1001F0009D151D159D141D1483160313640057309F
:10020000810083120313FF3092000800831603134A
:1002100061300F0808008316031381128115011144
:1002200081100110831203139C3081000B11080010
:100230008B178B160B1108008316031788010814FF
:1002400088148901831603138501850987018801B4
:100250008809860106178312031386018501870129
:100260008801A701AD01AE01AF0108008316031399
:100270009F018312031387309F0008008316031326
:100280000C170B17831203130800FA30A0004B2140
:10029000A00B47290800FA30A100A10B4D29080046
:02400E00D420BC
:02401000FF3F70
:00000001FF
